:020000040800F2
:10000000D007002091010008431D0008CB1A00080A
:10001000411D00080506000801200008000000003E
:10002000000000000000000000000000471D000864
:100030003F06000800000000451D0008611D000883
:10004000AB010008AB010008AB010008AB010008E0
:10005000AB010008AB010008AB010008AB010008D0
:10006000AB010008AB010008AB010008090600085D
:10007000AB010008AB010008AB010008AB010008B0
:10008000AB010008AB010008AB010008AB010008A0
:10009000AB010008AB010008AB010008AB01000890
:1000A000AB010008AB010008AB010008AB01000880
:1000B000AB010008AB010008AB010008AB01000870
:1000C000AB010008AB010008AB010008AB01000860
:1000D000AB010008F51F0008AB010008AB010008E8
:1000E000AB010008AB010008AB01000800F002F80A
:1000F00000F03FF80AA090E8000C82448344AAF183
:100100000107DA4501D100F034F8AFF2090EBAE880
:100110000F0013F0010F18BFFB1A43F0010318473B
:100120006C2200008C220000103A24BF78C878C1ED
:10013000FAD8520724BF30C830C144BF04680C60ED
:10014000704700000023002400250026103A28BF35
:1001500078C1FBD8520728BF30C148BF0B60704739
:10016000642900F07D80002070471FB51FBD10B5C9
:1001700010BD00F06EF91146FFF7F7FF01F0AEFF7A
:1001800000F08CF903B4FFF7F2FF03BC00F090F924
:100190000948804709480047FEE7FEE7FEE7FEE71B
:1001A000FEE7FEE7FEE7FEE7FEE7FEE70448054957
:1001B000054A064B70470000CD1D0008ED00000801
:1001C000D0010020D0070020D0030020D003002061
:1001D0000FB41CB5074B06AA7B44694600900598EE
:1001E00000F01FF90020694600F02EF91CBC5DF8F4
:1001F00014FB00006D0200002DE9F0410E4604469C
:10020000002020622046E168884730B3252805D0C9
:10021000D4E901219047206A401CF2E7E1682046BA
:1002200000278847050018D0A5F14100192802D8F9
:1002300020354FF400673246294620462760FFF7F5
:100240008FFF40B1012804D0F61D26F007060836BE
:10025000D8E7361DD6E72846DAE7206ABDE8F08100
:100260002DE9F0410646002410687529314615A590
:1002700010D0AFF30080002802DA404212A507E058
:1002800031688A0701D511A502E0490704D510A5F8
:10029000012401E0AFF3008000210A2306F12407C6
:1002A00007E0B0FBF3F203FB120030307854104645
:1002B000491C0028F5D123462A463046BDE8F041C6
:1002C00000F051B8000000002D0000002B000000DD
:1002D0002000000010B5431C02E010F8011B71B1B2
:1002E0008107FAD14FF0013202C88C1A8C4314EA0C
:1002F000C211F9D0C01A0A0603D0C01E10BDC01A20
:1003000010BD0A0401D0801E10BD0902FCD0401EA1
:1003100010BD4FF0000200B51346944696462039B2
:1003200022BFA0E80C50A0E80C50B1F12001BFF4AE
:10033000F7AF090728BFA0E80C5048BF0CC05DF814
:1003400004EB890028BF40F8042B08BF704748BF62
:1003500020F8022B11F0804F18BF00F8012B7047D6
:100360007047704770472DE9F0470D469946924611
:10037000044600F124080168880604D5E06921F0EC
:100380001001216000E00120A84201DD471B00E0D0
:100390000027A1697A1902EB0900081AA0612078E8
:1003A000C00602D42046AFF30080002608E0D4E95E
:1003B00001211AF806009047206A401C761C206232
:1003C0004E45F4DB2078C0060AD52046AFF3008006
:1003D00006E0D4E9012130209047206A401C2062C9
:1003E000381EA7F10107F4DC07E0D4E9012118F871
:1003F00005009047206A401C2062281EA5F10105D7
:10040000F3DC2046AFF300802078000602D50220FE
:10041000BDE8F0870120FBE701694A1C026108780A
:10042000704700B58FB0CDE9013100210591054934
:100430007944CDE9031011466846FFF7DDFE0FB0A1
:1004400000BD0000E5FFFFFF0A6802F8010B0A602B
:100450007047754600F028F8AE46050069465346D9
:1004600020F00700854618B020B5FFF79FFEBDE8D5
:1004700020404FF000064FF000074FF000084FF00B
:10048000000B21F00701AC46ACE8C009ACE8C0099C
:10049000ACE8C009ACE8C0098D4670470446AFF32C
:1004A00000802046FFF76EFE004870476C01002078
:1004B00001491820ABBEFEE726000200704700008D
:1004C00070B5044600688168C943C90717D18168BF
:1004D00021F00101816000F045FD05460AE000BF02
:1004E00000F040FD401B022804D920688068C0430A
:1004F000C00706D020688068C043C007F0D0002045
:1005000070BDA06A40F01000A062E06A40F00100F7
:10051000E062012070BD10B50146406A826A12F0A7
:10052000500F05D0006A026BBDE810400846104726
:10053000816A41F40071816201688968C1F34241B6
:1005400007290CD1017B51B9816A21F48071816244
:10055000816AC90403D4816A41F00101816200F01B
:10056000EFF810BD10B5406A816A41F04001816228
:10057000C16A41F00401C16200F0E4F810BD10B599
:10058000406A00F0DEF810BDF8B50026044600967B
:1005900000688168C943C9072DD0816841F0010115
:1005A0008160164816490068B0FBF1F000E0401E7B
:1005B00000900028FBD100F0D5FC054616E000BFF6
:1005C00000F0D0FC401B022810D920688068C0438E
:1005D000C0070BD0A06A40F01000A062E06A40F0B3
:1005E0000100E06284F824600120F8BD2068806882
:1005F000C043C007E4D10020F8BD00004400002043
:1006000040420F00FEE70000014800F093BA0000EE
:100610002801002030B590F840500124AC40C56B53
:100620006C60046863604368102B036803D09960B2
:100630000068C26030BD9A600068C16030BD70471C
:1006400072B6FEE7F8B50024009490F82420254601
:10065000012A12D0012280F824204A681F23072A89
:100660000DD20668776B521E02EB820293409F43C5
:100670000B6893401F43776319E00220F8BD0668BA
:100680000D2A0AD2376BD21F02EB820293409F439E
:100690000B6893401F43376309E0F76A0D3A02EB9A
:1006A000820293409F430B6893401F43F7620A689E
:1006B000072306680A2A0AD3F7680A3A02EB4202BD
:1006C00093409F438B6893401F43F76008E037696E
:1006D00002EB420293409F438B6893401F43376174
:1006E0000A68102A01D0112A20D1124B02689A42BE
:1006F00017D193681B0219D4936843F400039360E5
:100700000968102912D10C490C4A0968B1FBF2F1B1
:1007100001EB8101490000E0491E00910029FBD155
:1007200004E0816A41F020018162012480F82450B4
:100730002046F8BD002401404400002040420F0044
:1007400070477047704700002DE9F0414FF00007F7
:1007500004003D467ED0A06A002628B9E66284F8EF
:100760002460204600F07EF82046FFF7A9FEA16A2B
:1007700001F01001014304D0A06A40F01000A06213
:1007800068E0A16A21F4885141F00201A162626827
:10079000E169237B0A4347EA43010A43A1684FF416
:1007A0008077B94208D0012906D0002194F814C0FE
:1007B000BCF1010F02D00AE03946F7E7F3B1A36AB2
:1007C00043F02003A362E36A43F00103E36223687A
:1007D000D3F804C02CF4694C4CEA010CC3F804C0F3
:1007E00023689968DFF870C001EA0C011143996031
:1007F000A168B9420BD0012909D00CE0DFF85CC038
:10080000A3690CEB43330B4343F40061DFE7218A18
:100810000D05A5F580152168CB6A23F470032B43E1
:10082000CB62216889680E4B1940914208D1E6627B
:10083000A16A21F0020141F00101A162BDE8F0814D
:10084000A06A20F0020040F01000A062E06A40F0D0
:100850000100E0620120F1E7FDF7E1FF00E0FFFFAA
:10086000FE0E1FFF70B586B0002506460095019567
:100870000295039500681A4988422ED11949886962
:1008800040F400708861886900F400700490886901
:1008900040F0040088618869694600F00400049013
:1008A00060200090032001900F4800F065FA104C82
:1008B0000E48C4E900058020C4E9025040002061D0
:1008C000800060612020C4E90605204600F0DCF9C4
:1008D00008B1FFF7B5FE3462666206B070BD000075
:1008E00000240140001002400008014008000240BE
:1008F000280100202DE9F047894604463B4900685D
:100900003B4F0E1D9046884201D0B84207D1306857
:1009100010F4702F03D001252846BDE8F08794F825
:10092000240001280CD0012084F824002046FFF781
:100930002BFE05004FF0000004D084F82400EBE704
:100940000220EAE7A16A40F60162914341F4807116
:10095000A1622168B94218D1326812F4702F14D004
:10096000A16A41F48011A1623168490505D5A16AE7
:1009700021F4005141F48051A162A16AC9040AD551
:10098000E16A21F00601E16206E0A26A22F4801227
:10099000A2624968E9E7E06284F82400216A154808
:1009A0008862216A1448C862216A14480863216871
:1009B0006FF0020008602068816841F480718160F6
:1009C000216843464A464C31206A00F08BF9206882
:1009D0008168C1F342410729816803D041F4801145
:1009E000816099E741F4A001FAE70000002401408A
:1009F00000280140170500087F050008650500086C
:100A000010B5044690F82400012807D0012084F88E
:100A100024002046FFF754FD10B113E0022010BD62
:100A200021688A6822F480728A60216A91F8212004
:100A3000022A07D1084600F00EF8A16A30B141F051
:100A40004001A162002184F8241010BD21F48851D6
:100A500041F00101F5E710B590F8211000220229BC
:100A600005D00421816380F82020012010BD016899
:100A70000B6823F00E030B6001680B6823F0010381
:100A80000B6090F84030C46B012101FA03F36360FE
:100A900080F8211080F82020104610BD10B590F885
:100AA00021100024022903D00421816301243DE0A8
:100AB00001680A6822F00E020A6001680A6822F0E2
:100AC00001020A601A4A0168914201D1012121E024
:100AD000174A1432914201D110211BE0144A2832E6
:100AE000914201D1891515E0114A3C32914201D160
:100AF00089140FE00E4A5032914202D14FF48031F6
:100B000008E00B4A6432914202D14FF4801101E0B7
:100B10004FF08071064A083A5160012180F8211097
:100B2000002180F82010416B01B18847204610BD9C
:100B3000080002402DE9F05FC16B0C6801680B688A
:100B4000D0F840C0042202FA0CF2494DDFF824A18B
:100B5000494E4A4FDFF828B1DFF828E122422CD075
:100B60005A072AD50A68920603D40A6822F00402BA
:100B70000A600168A94201D1042219E0514501D15E
:100B8000402215E0B14202D14FF4806210E0B94238
:100B900002D14FF480420BE0594502D14FF480223C
:100BA00006E0714502D14FF4800201E04FF080620F
:100BB0002F4908394A60C16A3BE04FF0020808FA41
:100BC0000CF818EA040F4FF000094FF0010235D07D
:100BD0005FEA837832D50B689B0605D40B6823F057
:100BE0000A030B6080F821200168A94201D102228A
:100BF00019E0514501D1202215E0B14202D14FF454
:100C0000007210E0B94202D14FF400520BE0594596
:100C100002D14FF4003206E0714502D14FF40012C8
:100C200001E04FF00072124908394A6080F82090C4
:100C3000816A00291AD0BDE8F05F0847082505FA47
:100C40000CF5254212D01B0710D50B6823F00E03BC
:100C50000B6090F84010C36B02FA01F15960826397
:100C600080F8212080F82090016BE2E7BDE8F09F3A
:100C7000080002401C0002403000024044000240D4
:100C8000580002406C00024030B528B308C8134930
:100C900014221944B1FBF2F18900C1631049816348
:100CA000022141771A6843F6F0718A43D0E90014B3
:100CB0002143D0E902452C4321430469214344697F
:100CC00021438469214311431960002141630122BA
:100CD00042770177084630BD012030BDF8FFFDBFE7
:100CE0000000024070B5044690F82000002501285D
:100CF0000CD0012084F8200094F821600020012EFF
:100D000006D084F820000225284670BD022070BD60
:100D1000022684F82160A0632068066826F0010698
:100D200006602046FFF776FCE06A0028206801682C
:100D300002D041F00E0106E021F0040101602068BC
:100D4000016841F00A0101602068016841F0010179
:100D50000160D9E770B5044600F004F90546601C4F
:100D600002D004480078044400F0FCF8401BA04284
:100D7000FAD370BD380000202DE9F84FDFF8B891A4
:100D80000024A9F1040B23460F2709F1040AABF153
:100D9000040EC9E00125A5402A40AA427DD1674E34
:100DA000D1F804C0ACEB0608B44532D014DCBCF179
:100DB000030F3AD009DCBCF1000F2AD0BCF1010FBF
:100DC0001CD0BCF1020F31D11DE0BCF1110F17D0C6
:100DD000BCF1120F2AD119E0B8F5881F19D006DC32
:100DE000B8F5803F15D0B8F5801F1FD111E0B8F5D8
:100DF000001F0ED0B8F5041F18D10AE0CB6815E02B
:100E0000CB681B1D12E0CB6808330FE0CB680C33B6
:100E10000CE08B682BB1012B4FF0080303D0456128
:100E200004E0042302E0056100E00023FF2A01D86A
:100E3000064601E000F104064FEA840501D9A5F158
:100E40002005D6F8008007FA05FC28EA0C0803FA0A
:100E500005F548EA0508C6F800804D68ED0062D542
:100E6000374DAE6946F00106AE61AD6924F0030668
:100E700005F001050095334D06EB050CDCF8085034
:100E8000A607360F07FA06F825EA0805DFF8B88046
:100E9000404503D14FF0000817E044E0DFF8AC8094
:100EA000404502D14FF001080FE0DFF8A480404533
:100EB00002D14FF0020808E0DFF89880404502D1E7
:100EC0004FF0030801E04FF0040808FA06F848EA7A
:100ED0000508CCF808804D68D9F80060ED024D4651
:100EE00001D5164300E096432E604D68DAF80060A5
:100EF000AD02554601D5164300E096432E604D687D
:100F0000DBF80060AD035D4601D5164300E0964373
:100F10002E604D68DEF80060ED03754601D516437E
:100F200000E096432E60641C0D682A46E5407FF47D
:100F300031AFBDE8F88F0000080401400000111037
:100F4000001002400000014000080140000C014078
:100F500000100140001401400AB10161704709040A
:100F6000FBE700000148806870470000380000205F
:100F7000024881680278114481607047380000207F
:100F8000074810B5016841F010010160032000F02E
:100F900075F80F2000F006F800F024F8002010BDCE
:100FA0000020024070B50D4D04464FF47A71287848
:100FB000B1FBF0F00A490968B1FBF0F000F052FB18
:100FC00048B9102C07D200222146501E00F036F8F6
:100FD00000206C6070BD012070BD00003800002052
:100FE000440000200C4808B5816941F0010181618D
:100FF000816901F001010091C16941F08051C16135
:10100000C06900F0805000900448416821F0E06120
:1010100041F00071416008BD001002400000014035
:10102000002809DB00F01F020121914040098000E7
:1010300000F1E020C0F8001170470000F0B40E4B42
:101040001B680C46C3F30223C3F10705042D00D926
:101050000425191D072901D2002300E0DB1E01260B
:1010600006FA05F1491E214099409E40761E164021
:101070003143F0BC00F0C5BF0CED00E0064900F0C4
:10108000070208684FF6FF03184040EA0220034AAF
:1010900010430860704700000CED00E00000FA0506
:1010A0002DE9F84305460078354CC00754D0E06977
:1010B0000026C00008D4E06940F08050E061E0699B
:1010C000012600F0805000902E480168C90512D416
:1010D0000168804641F480710160FFF743FF0746D5
:1010E00005E000BFFFF73EFFC01B642823D8D8F8F7
:1010F0000000C005F6D5206A10F4407021D0A98800
:1011000001F4407181421CD0206A1F49012220F461
:1011100040700A6000220A602062C00711D0FFF709
:1011200021FF074641F2883808E000BFFFF71AFFA9
:10113000C11B414502D90320BDE8F883206A80071E
:10114000F4D5206A696820F44070084320621EB11B
:10115000E06920F08050E0612878800705D560685C
:10116000A96820F44040084360602878C00605D58F
:101170006068E96820F48000084360600020DBE7D5
:101180000010024000700040400442422DE9F04748
:101190000F46050061D0434E306800F00700B842AA
:1011A00009D2306820F0070038433060306800F022
:1011B0000700B84251D128683B4C810712D540073F
:1011C00003D5606840F4E06060602878000703D5CC
:1011D000606840F4605060606068A96820F0F000CA
:1011E000084360602878C00728D06868012810D0BC
:1011F0002168022810D0890700292EDA616821F0C1
:10120000030101436160FFF7ADFE804641F288397A
:101210000DE021688903EFE78901EDE7FFF7A2FE02
:10122000A0EB0801494502D90320BDE8F0876068BA
:10123000696800F00C00B0EB810FEFD1306800F06E
:101240000700B8420BD9306820F0070038433060FF
:10125000306800F00700B84201D00120E5E72878A7
:10126000400705D56068E96820F4E06008436060E5
:101270002878000706D56068296920F4605040EAA4
:10128000C100606000F038F86168084AC1F30311DA
:10129000515CC8400649086006480068FFF782FEB6
:1012A0000020C2E700200240001002407223000824
:1012B000440000203C0000200448054900684968BB
:1012C000044AC1F30221515CC84070474400002029
:1012D000001002408223000804480549006849685C
:1012E000044AC1F3C221515CC84070474400002049
:1012F00000100240822300080E4A51680E4801F097
:101300000C03042B11D0082B0FD10C48C1F38343DD
:10131000C903C05C0AD55168084AC1F34041921E16
:10132000515C054A5043B0FBF1F070470449484313
:10133000704700000010024000127A00622300088B
:1013400000093D002DE9F84F040070D02078C04D11
:10135000C00749D06868C0F38100012807D06868D9
:10136000C0F38100022809D16868C00306D5286847
:10137000800339D560680028E7D035E06068B0F5B3
:10138000803F0BD010B1B0F5A02F11D0286820F409
:1013900080302860286820F4802002E0286840F42B
:1013A00080302860606890B1FFF7DCFD06460AE0F7
:1013B000286840F480202860F0E700BFFFF7D2FDE6
:1013C000801B642873D828688003F7D50CE0FFF7EA
:1013D000C9FD064605E000BFFFF7C4FD801B642879
:1013E000F0D828688003F7D420789A4E80074FF011
:1013F00001094FF0000839D5686810F00C0F07D0CC
:101400006868C0F38100022809D16868C00306D467
:101410002868800714D52069012808D110E02069C8
:10142000B0B1C6F80090FFF79DFD074605E00AE160
:10143000FFF798FDC01B0228C4D828688007F7D59D
:101440002868616920F0F80040EAC10028600DE0DA
:10145000C6F80080FFF786FD074604E0FFF782FD2F
:10146000C01B022823D828688007F7D420780007FB
:101470002CD57948A169D9B1C0F80090FFF772FD69
:10148000074604E0FFF76EFDC01B02280FD8686A0C
:101490008007F7D571484FF4FA510068B0FBF1F0BE
:1014A000009000BF0098411E0091FAD20EE080E04B
:1014B000C0F80080FFF756FD074604E0FFF752FD35
:1014C000C01B022875D8686A8007F7D420784007C7
:1014D00060D5E8690027C00008D4E86940F0805072
:1014E000E861E869012700F0805000905C480168DD
:1014F000C90513D40168834641F480710160FFF788
:1015000031FD824606E000BFFFF72CFDA0EB0A008C
:1015100064284ED8DBF80000C005F5D5E068012846
:101520000AD008B1052813D0286A20F001002862EB
:10153000286A20F0040002E0286A40F001002862D6
:10154000E06841F2883B98B1FFF70CFD82460BE062
:10155000286A40F004002862EEE700BFFFF702FDB2
:10156000A0EB0A0159455AD8286A8007F6D50CE045
:10157000FFF7F8FC824605E0FFF7F4FCA0EB0A0158
:1015800059454CD8286A8007F6D41FB1E86920F085
:101590008050E861E06988B36968C1F3810102297C
:1015A00044D00228C6F8608004D0FFF7DBFC044674
:1015B00038E034E0FFF7D6FC074604E0FFF7D2FC42
:1015C000C01B02282BD828688001F7D4206AB0F508
:1015D000803F05D16868A16820F400300843686046
:1015E000D4E908010843696821F47411084368606C
:1015F000C6F86090FFF7B6FC044606E025E000BFA1
:10160000FFF7B0FC001B022809D828688001F7D535
:101610001BE000BFFFF7A6FC001B022802D9032035
:10162000BDE8F88F28688001F4D40EE00128F7D0D7
:101630006868226A00F48031914204D1616A00F442
:101640007010884201D00120EAE70020E8E700009E
:101650000010024000004242800442424400002048
:101660000070004010B5401EB0F1807F01D3012012
:1016700010BD4FF0E02460610F21601700F0C1FC45
:101680000020A06107202061002010BD7047704736
:10169000F8B5016804460868CA684B6910F00F0F76
:1016A0004FF000055AD003F0010602F4907737435B
:1016B00065D0C10705D0D10503D5616C41F00101AA
:1016C0006164410705D5D90703D0616C41F002017F
:1016D0006164810705D5D90703D0616C41F004012D
:1016E0006164010707D502F02001314303D0616C2A
:1016F00041F008016164616C00293BD0800604D58B
:10170000900602D5204600F091FB20684069616C8C
:10171000C0F3801001F00801014320462BD000F0F7
:101720005EFB20684069400621D52068143050E8EF
:10173000001F21F0400140E80012002AF5D1E06BC3
:10174000A8B16D494163E06BFFF7A8F9002811D0FB
:10175000E06B416B01B0BDE8F040084783060ED551
:1017600093060CD52046BDE8F84000F05FBB20464C
:10177000FFF78DFFF8BDFFF78AFF6564F8BD266BA4
:101780002023012E7CD1C6067AD5D60678D50868E6
:101790004868009048694FF00206400640D5E16B6A
:1017A000086840680004000CE8D0A28D8242E5D9A8
:1017B000E085886920282DD020680C3050E8001F73
:1017C00021F4807140E80012002AF5D1216814311B
:1017D00051E8000F20F0010041E80002002AF5D195
:1017E0002068143050E8001F21F0400140E800124A
:1017F000002AF5D184F84230256320680C3050E887
:10180000001F21F0100140E80012002AF5D1E06B22
:10181000FFF721F96663A08DE18D401A81B22AE0BD
:10182000A08DE18D401A81B2E08D0028A6D000295C
:10183000A4D022680C3252E8000F20F4907042E8E5
:101840000007002FF5D12068143050E8002F22F057
:10185000010240E80027002FF5D184F842302563CB
:1018600020680C3050E8002F22F0100240E80023DE
:10187000002BF5D166632046FFF708FFF8BDFFE7B0
:1018800005062BD5150629D594F841002128F5D158
:10189000A068B0F5805F01D12069B0B1206A411C19
:1018A0002162216800784860E08C401E0004000C32
:1018B000E084E3D12068C16821F08001C160206824
:1018C000C16841F04001C160D8E7206A0088C0F3D8
:1018D00008004860206A801C2062E5E74006CDD5FC
:1018E0005006CBD5CA68204622F04002CA6084F870
:1018F000413000F0E9F8C1E7CF1D000870B50400E1
:1019000004D094F84100002510B106E0012070BD1C
:1019100084F84050204600F023F8242084F8410049
:101920002068C16821F40051C160204600F0E0FA4F
:101930002068016921F4904101612068416921F02A
:101940002A0141612068C16841F40051C1606564A9
:10195000202084F8410084F842006563002070BDB7
:1019600070B586B0002400940194029403942B4E29
:1019700003682B49022003222A4DB34229D18B69E7
:1019800043F480438B618B6903F4804304938B6938
:1019900043F004038B618969039201F0040104910F
:1019A0000102CDE9001069462846FFF7E5F9281540
:1019B000CDE90004694628460294FFF7DDF90022CC
:1019C00001212520FFF73AFB2520FFF729FB06B070
:1019D00070BD154EB342FAD1CB6943F40033CB61ED
:1019E000CB6903F4003304938B6943F004038B61E8
:1019F0008969039201F0040104910421CDE90010EA
:101A000069462846FFF7B8F90820CDE90004694681
:101A100028460294FFF7B0F9D9E7000000380140EA
:101A200000100240000801400044004070472DE9CA
:101A3000F843044690F841001F4616460D462028FC
:101A400002D00220BDE8F8837DB176B10020606449
:101A5000212084F84100FFF785FAA6848046E684B9
:101A6000A068B0F5805F02D003E00120EAE72069BA
:101A700010B12E4600250EE000260CE08021204605
:101A800000F07CFAA0B9AEB116F8010B21684860ED
:101A9000E08C401EE084E08C43464FF0000200974B
:101AA0000028EBD14FF04001204600F067FA30B13A
:101AB0000320C7E735F8020BC0F30800E6E7202053
:101AC00084F841000020BDE77047FEE710B500F044
:101AD00017F8332000F0D8FA322000F0D5FA282089
:101AE00000F0D2FA012000F0CFFA0C2000F0CCFA7E
:101AF000BDE81040062000F0C7BA012000F0C4BACB
:101B00002DE9F04186B0334800240294816941F008
:101B100004018161816901F004010491816941F04E
:101B200008018161816901F008010491816941F036
:101B3000100181618069012500F0100004904FF4CC
:101B40000040CDE90005DFF8908003266946039642
:101B50004046FFF711F96803CDE90005CDE90246DB
:101B600069464046FFF708F9AF0300970396CDE9B1
:101B7000015469464046FFF7FFF8002239464046C7
:101B8000FFF7EAF91020CDE90005CDE902466946E4
:101B90004046FFF7F1F82020CDE90005CDE90246E7
:101BA00069464046FFF7E8F84020CDE90005CDE959
:101BB000024669464046FFF7DFF88020CDE9000580
:101BC000CDE9024669464046FFF7D6F806B0BDE8C3
:101BD000F081000000100240000C014031B14030A3
:101BE000C0B240F0800000BF00F04EBA40F080006C
:101BF000FAE700000EB5024603A16846FEF7E8FAD0
:101C0000684600F003F80EBD2564000070B5054677
:101C1000002404E0285D00F04DFA641CE4B228467C
:101C2000FEF758FBA042F5D870BD00003EB5002479
:101C30001748009401941549029401608915816048
:101C400004730475022505614FF460214460C1618D
:101C5000FEF77AFD08B172B6FEE70620009001207B
:101C6000CDE9010469460A48FEF7ECFC08B172B6FA
:101C7000FEE70520CDE9000569460548FEF7E2FCD0
:101C8000002801D072B6FEE73EBD000000240140EE
:101C9000680000202DE9F04385B000242548009419
:101CA000019402940394816941F01001816181697A
:101CB00001F010010491816941F020018161816985
:101CC00001F020010491816941F004018161816981
:101CD00001F004010491816941F00801816180698A
:101CE000DFF8548000F008004FF400550490002203
:101CF00029464046FFF730F9DFF840904EF2F707EB
:101D0000002239464846FFF727F9009502260125AB
:101D10000396CDE9015469464046FFF72DF8009738
:101D20000396CDE9015469464846FFF725F805B00A
:101D3000BDE8F0830010024000100140000C01409B
:101D4000FEE7FEE7704770470349044A0968B1FBA4
:101D5000F2F14843FFF786BC4400002040420F00E8
:101D6000FFF706B930B593B028216846FEF7D1FADF
:101D700014210AA8FEF7CDFA002401200F940225B1
:101D800004900095102011940590109412940794DB
:101D90006846FFF7D7FA08B172B6FEE70F20CDE923
:101DA0000A040C940D9400210AA80E94FFF7EEF992
:101DB00008B172B6FEE70FA80F951194FFF770F9FE
:101DC000002801D072B6FEE713B030BD704710B5E1
:101DD000406A0021C185C184FFF759FC10BD01682C
:101DE0000C3151E8002F22F4907241E80023002BBF
:101DF000F5D10168143151E8002F22F0010241E8C9
:101E00000023002BF5D1016B012909D101680C31A8
:101E100051E8002F22F0100241E80023002BF5D1F9
:101E2000202180F8421000210163704708B590F826
:101E30004210222901D0022008BD82684FF480534D
:101E40009A4201D1016921B1816A9A421BD04AB1FB
:101E50000AE00268816A5268C2F308020A80816A55
:101E6000891C08E0026972B10268526802F07F02C0
:101E70000A70816A491C8162C18D491E0904090CDE
:101E8000C18503D01BE002685268F1E70168CA68A7
:101E900022F02002CA600168CA6822F48072CA6017
:101EA00001684A6922F001024A61202180F842104B
:101EB00000214163026B012A03D0FFF7B7FD002028
:101EC00008BD016301680C3151E8002F22F01002B7
:101ED00041E80023002BF5D101680A68D20602D53B
:101EE0000A6849680091818DFFF7D0FBE7E70000A1
:101EF00010B5044600680169E26821F440511143BD
:101F000001612169A0680843616908432168CA68C2
:101F100041F20C639A430243CA6020684169A26996
:101F200021F440711143416113492068884202D174
:101F3000FFF7D2F901E0FFF7BFF900EBC00101EBB9
:101F40000010616864228900B0FBF1F1B1FBF2F08E
:101F50006FF01803434301EB8303322101EB0311BC
:101F6000B1FBF2F101F0F00202EB001001F00F0101
:101F700008442168886010BD003801402DE9F04117
:101F8000984617460E460446069D27E0681C25D055
:101F90002DB1FEF7E7FFA0EB0800A8421ED920688C
:101FA0000C3050E8001F21F4D07140E80012002AE4
:101FB000F5D12068143050E8001F21F0010140E8FD
:101FC0000012002AF5D1202084F8410084F8420054
:101FD000002084F840000320BDE8F08120680068FC
:101FE00036EA000004D00020B842CFD00020F3E74A
:101FF0000120F9E70148FFF74BBB000098000020E3
:10200000FEE70907090E002804DB00F1E02080F854
:102010000014704700F00F0000F1E02080F8141D5C
:10202000704700002DE9F041154D0F468046002411
:1020300005F108060EE000BF28FA04F0C00735F8E5
:10204000141056F8240018D05FF00102FEF784FF48
:10205000641CE4B2BC42EFD301220A4D5403214672
:102060002846FEF779FF0120FEF774FE2146284638
:10207000BDE8F0410022FEF76FBF0022E6E7000056
:1020800000000020000C014010B5044600224FF46F
:1020900000410748FEF760FF20090421FFF7C2FF57
:1020A00004F00F00BDE810400421FFF7BBBF0000A3
:1020B000000C014010B504460122D1030648FEF78A
:1020C0004BFF20090421FFF7ADFF04F00F00BDE82E
:1020D00010400421FFF7A6BF000C014008B5FEF731
:1020E0004FFFFFF73FFEFFF7D5FD8448416941F000
:1020F000010141614069002200F001000090114699
:102100000B20FEF79BFF0B20FEF78AFFFFF78EFDEB
:102110007C487B49002401604FF41651C0E901144A
:102120000C25C460C0E904458461C461FFF7E6FB87
:1021300008B172B6FEE773487349483001604FF446
:10214000E131C0E90114C460C0E904458461C4619F
:10215000FFF7D4FB08B172B6FEE76C4C01220221F6
:102160002046FEF7F9FE012204212046FEF7F4FE88
:10217000FFF7ACFC00210846FFF730FD64A0FFF735
:1021800045FD04210020FFF729FD65A0FFF73EFD76
:1021900040F6B830FEF7DEFDFFF7AFFC634FDFF827
:1021A000909140F6FF784FF47A7A4FF4AF7B554820
:1021B00002225E493038FEF79DFB002201212046B5
:1021C000FEF7CAFE4FF48C70FFF7BEFD01221146E8
:1021D0002046FEF7C1FE0120FEF7BCFD494830381D
:1021E000FEF70EFC798841F288304143B1FBF8F1EB
:1021F00001EB011101EB810209EB420292FBFAF5BE
:10220000398864225143B1FBF8F65D4501DC0E2E9E
:102210000EDD012202212046FEF79EFEC820FEF7B9
:1022200099FD002202212046FEF796FE002205E0DD
:10223000012202212046FEF78FFE012204212046C2
:10224000FEF78AFE002D00DA002500210846FFF780
:10225000C5FC38A0FFF7DAFC2846FFF7CBFC37A017
:10226000FFF7D4FC01210020FFF7B8FC35A0FFF7F1
:10227000CDFC3046FFF7BEFC34A0FFF7C7FC214879
:102280002A4633A15038FDF7A3FF1E48324630A13D
:102290004638FDF79DFF25491A4864230E22091D83
:1022A0004830FFF7C4FB1749642350390A2201F173
:1022B0009800FFF7BCFB1D49124864230E2212311F
:1022C0004830FFF7B4FB0F49642346390A2201F175
:1022D0008E00FFF7ACFB0B4833462A461EA13C3864
:1022E000FDF776FF074964230A223C390548FFF7CA
:1022F0009EFB4FF4FA60FEF72DFD58E700100240F8
:10230000003801409800002000440040000C0140CB
:10231000444F204E4F4E4720444F20425549000025
:102320005641204B484920474153000018000020E7
:102330006079FEFF445553543A20000075672F6DB5
:10234000330000004741533A200000002500000000
:1023500025640A0D0000000025642C25640A0D0088
:10236000010202030405060708090A0B0C0D0E0FF3
:102370001010000000000000000001020304060726
:10238000080900000000010203040000AC2300085B
:10239000000000204800000028010008F423000885
:1023A00048000020880700004401000810002000B9
:1023B00040008000000C0140000C0140000C014076
:1023C000000C0140000000004E4F4E4720444F20BB
:1023D0004255493A20004E4F4E4720444F20474136
:1023E000533A20000100000010000000000000002F
:0423F0000024F400D1
:04000005080000ED02
:00000001FF
